:10000000004000208D050000CD050000CF05000058
:1000100000000000000000000000000000000000E0
:10002000000000000000000000000000D1050000FA
:100030000000000000000000D3050000D50500000E
:10004000D7050000D7050000D7050000D705000040
:10005000D705000000000000D7050000D70500000C
:10006000D7050000D7050000D7050000D705000020
:10007000D7050000D7050000D7050000D705000010
:10008000D7050000D7050000D7050000D705000000
:10009000D7050000D7050000D7050000D7050000F0
:1000A000D7050000D7050000000000000000000098
:1000B0000000000000000000000000000000000040
:1000C00008B5054B054803331B1A062B03D9044B0F
:1000D000002B00D0984708BD3804002038040020C9
:1000E000000000000648074908B5091A8910CB0F1F
:1000F0005918491003D0044B002B00D0984708BD75
:1001000038040020380400200000000010B5074C1F
:100110002378002B09D1FFF7D3FF054B002B02D02A
:10012000044800E000BF0123237010BD3804002004
:10013000000000002809000008B5094B002B03D07F
:100140000848094900E000BF08480368002B02D1B5
:10015000FFF7C8FF08BD064B002BF9D09847F7E71B
:1001600000000000280900003C04002034040020A6
:1001700000000000144B002B00D1124B9D46402282
:1001800092029A1A924600218B460F461148124A53
:10019000121A00F077FA0D4B002B00D098470C4B49
:1001A000002B00D098470020002104000D000B48D0
:1001B00000F012FA00F042FA2000290000F010F8D6
:1001C00000F012FA000008000040002000000000CB
:1001D000000000003804002054040020090600003C
:1001E00080B500AF00F00AF800F0DAF800F042F84D
:1001F00000F0BEF80023181CBD4680BD80B500AFDE
:10020000A023DA05EC23DB000121D150A023DB057C
:10021000124A002199501249A123DB0001225242C7
:10022000CA500F49A223DB0001225242CA500C4A95
:100230000C4B1821D1500A4A0B4B1921D150084AB6
:100240000A4B0B49D150064AA023DB000421D150B0
:10025000034B01221A60BD4680BDC0466407000002
:10026000002000400C0500001405000024050000DB
:100270000050270080B500AFA023DA05EF23DB0094
:10028000C021C900D150A023DA05E023DB00C02142
:10029000C900D1500A4AA123DB000021D150084AED
:1002A000084B1E21D1500649074ACC235B048B50D2
:1002B000034AA023DB000521D150BD4680BDC046C6
:1002C000003000400C0500002405000080B586B019
:1002D00000AFBA607B600F23FB18021C1A700E235C
:1002E000FB180A1C1A7020490F23FB181A78B12337
:1002F000DB00CA501C4B01229A601B4A8E235B0014
:100300000021D15018490E23FB181B78174A8B5037
:10031000C046154A8E235B00D358002BF9D000232A
:100320007B6116E0104A8E235B000021D1500E49FC
:100330007B697A68D3181B781A1C0C4BCA50C046CC
:10034000094A8E235B00D358002BF9D07B69013317
:100350007B617A69BB689A42E4DB034B00225A61F5
:10036000BD4606B080BDC046003000401C05000000
:1003700080B582B000AFFB1D57221A70FB1D1920FB
:1003800020210122FFF7A2FFFB1D08221A70FB1D8E
:10039000192023210122FFF799FFBD4602B080BD3D
:1003A00080B582B000AF04237B6015E0A023DA059E
:1003B00001217B6899400B1C191CA323DB00D15041
:1003C000A023DB0501217A6891400A1C111C054A13
:1003D00099507B6801337B607B680F2BE6DDBD465F
:1003E00002B080BD0C05000080B500AF00F034F80D
:1003F000031E06D0124B134A1A60134B80221202BE
:100400001A6000F069F8031E05D08023DA05C123C5
:10041000DB000121D15000F085F8031E0ED00B4BFC
:100420001B68012B07D0094B094A1A60C046074BCD
:100430001B68012BFBD1074BC0221A60BD4680BD53
:1004400004050040DFFF07C0186C004000EC0640C8
:100450007593000014EC064080B500AF1A4B1B6882
:10046000FF221340012B2AD1184B1B680F22134087
:1004700025D1174B1B68F022134006D1154B1B6882
:10048000F022134001D101231AE0114B1B68F02226
:100490001340102B06D10F4B1B68F022134001D1E3
:1004A00001230DE00A4B1B68F0221340302B06D1CC
:1004B000084B1B68F022134001D1012300E0002308
:1004C000181CBD4680BDC046E00F00F0E40F00F0F0
:1004D000E80F00F0EC0F00F080B500AF0D4B1B688B
:1004E000FF221340012B11D10B4B1B680F2213402D
:1004F0000CD10A4B1B68F0221340402B06D1084B4D
:100500001B68F022134001D1012300E00023181CD6
:10051000BD4680BDE00F00F0E40F00F0E80F00F0F2
:10052000EC0F00F080B500AF144B1B68FF221340A6
:10053000012B1ED1124B1B680F22134019D1114BF6
:100540001B68F0221340A02B06D10F4B1B68F02232
:10055000134001D101230DE00A4B1B68F022134028
:10056000D02B06D1084B1B68F022134001D1012388
:1005700000E00023181CBD4680BDC046E00F00F01F
:10058000E40F00F0E80F00F0EC0F00F003210A4840
:1005900002680A430260094802680A430260084987
:1005A000084A094B9B1A03DD043BC858D050FBDCBA
:1005B000FFF71AFFFFF7DEFD240500405405004059
:1005C000340900000000002038040020FEE7FEE7A8
:1005D000FEE7FEE7FEE7FEE708B5011C002200206B
:1005E000002300F095F808BD10B50021041C00F0B0
:1005F00005F9044B1868C36B002B00D09847201CEA
:1006000000F080F92409000038B5094B094CE41AC0
:10061000A41009D0084AA518AD00ED182B68013CBC
:100620009847043D002CF9D100F074F938BDC0465C
:100630003004002034040020FFFFFF3F70B50D4E52
:100640000D4D0024AD1BAD1005D0A300F3580134AF
:100650009847A542F9D100F057F9084E084D0024FB
:10066000AD1BAD1005D0A300F35801349847A54247
:10067000F9D170BD2804002028040020280400209F
:100680003004002070B583073FD0541E002A3BD0B1
:10069000CEB2031C032503E0621E002C34D0141CD0
:1006A00001335A1E16702B42F6D1032C24D9FF2594
:1006B0000D402A0215432A0415430F2C11D9261C7C
:1006C000103E3609013636011A1C9B19156055601B
:1006D0009560D56010329342F8D10F221440032C5C
:1006E0000AD9261FB6080136B6001A1C9B1920C26B
:1006F0009342FCD103221440002C05D0C9B21C192E
:1007000019700133A342FBD170BD141C031CCCE74C
:10071000F8B544465F4656464D469B462F4BF0B4CF
:100720001C68A4235B00051CE0580E1C90460028A2
:100730004BD043681F2B0DDC5C1C002D21D10233F4
:100740009B0044601E5000203CBC90469946A24647
:10075000AB46F8BD224B002B3CD0C820400000E047
:1007600000BF002836D0A42200235200A1584360C5
:100770000160A05040328350043283500124002D88
:10078000DDD09A0091468144424688214F467A50F6
:10079000C4225200904680444246873999401268EC
:1007A0008A460A439446424661461160842249467D
:1007B0005F4652008F50022DC1D1021C55468D322A
:1007C000FF3211680D431560B9E7201C4D30FF3032
:1007D000E050AEE701204042B6E7C04624090000E1
:1007E0000000000008B5034B002B02D00248FFF7C1
:1007F000F3FE08BD0000000009060000F0B55646F3
:100800005F464D464446F0B40E1C3C4B87B01B6817
:10081000019003934933FF330493A422039B5200B6
:100820009F58002F4CD0049B984600239B46C4231E
:100830005B009C46BC4463460293C6235B009A4619
:100840007C68BA44A5007D19013C08D526E06B1DE3
:10085000FF331B68B34204D0043D013C1ED3002E7D
:10086000F5D17B686A68013BA3423AD05B466B6076
:10087000002AF1D07B68029999460123A3400968B8
:100880000591194223D190477B684B45C5D143461A
:100890001B68BB42C1D1043D013CE0D2184B002B88
:1008A0000ED07B68002B23D13B68002B24D042461E
:1008B000381C136000E000BF43461F68002FB6D10C
:1008C00007B03CBC90469946A246AB46F0BD5146A7
:1008D0000968194207D12B1C843319680198904785
:1008E000D2E77C60C4E72B1C843318689047CBE7C1
:1008F0003B68B8461F1CE1E70023FAE72409000023
:1009000000000000FEE7C046F8B5C046F8BC08BCD1
:100910009E467047F8B5C046F8BC08BC9E46704776
:0C09200043000000000000200000000068
:08092C0048F8FF7F0100000004
:1009340000000000EC02002054030020BC0300204F
:1009440000000000000000000000000000000000A3
:100954000000000000000000000000000000000093
:10096400000000002009000000000000000000005A
:100974000000000000000000000000000000000073
:100984000000000000000000000000000000000063
:100994000000000000000000000000000000000053
:1009A4000000000000000000000000000000000043
:1009B4000000000000000000000000000000000033
:1009C4000000000000000000000000000000000023
:1009D4000000000000000000010000000000000012
:1009E4000E33CDAB34126DE6ECDE05000B000000D7
:1009F40000000000000000000000000000000000F3
:100A040000000000000000000000000000000000E2
:100A140000000000000000000000000000000000D2
:100A240000000000000000000000000000000000C2
:100D54000000000000000000E50700003901000069
:080D64000D0100000000000079
:040000030000058D67
:00000001FF
